{
  "address": "0x010fF9d02C210C95d0D0C662759C1C5763d9D6bC",
  "abi": [
    {
      "anonymous": false,
      "inputs": [
        {
          "indexed": false,
          "internalType": "uint256",
          "name": "newValue",
          "type": "uint256"
        }
      ],
      "name": "ValueChange",
      "type": "event"
    },
    {
      "inputs": [],
      "name": "increment",
      "outputs": [],
      "stateMutability": "nonpayable",
      "type": "function"
    },
    {
      "inputs": [],
      "name": "retrieve",
      "outputs": [
        {
          "internalType": "uint256",
          "name": "",
          "type": "uint256"
        }
      ],
      "stateMutability": "view",
      "type": "function"
    },
    {
      "inputs": [
        {
          "internalType": "uint256",
          "name": "newValue",
          "type": "uint256"
        }
      ],
      "name": "store",
      "outputs": [],
      "stateMutability": "nonpayable",
      "type": "function"
    }
  ],
  "transactionHash": "0xd8c7ae257b6c9787b746facd2c79ee68d992dd97dddb8ca9f551e03bca3e056f",
  "args": [],
  "numDeployments": 1,
  "solcInputHash": "7ca82ce810cd45a7055a60c2558b9a73",
  "bytecode": "0x608060405234801561001057600080fd5b50610268806100206000396000f3fe608060405234801561001057600080fd5b50600436106100415760003560e01c80632e64cec1146100465780636057361d14610064578063d09de08a14610080575b600080fd5b61004e61008a565b60405161005b9190610171565b60405180910390f35b61007e60048036038101906100799190610139565b610093565b005b6100886100d4565b005b60008054905090565b806000819055507fa08786470df18dce77f2c3a12acf2022fd1ff8b97fe62396a54ee458dcebef04816040516100c99190610171565b60405180910390a150565b60016000546100e3919061018c565b6000819055507fa08786470df18dce77f2c3a12acf2022fd1ff8b97fe62396a54ee458dcebef0460005460405161011a9190610171565b60405180910390a1565b6000813590506101338161021b565b92915050565b60006020828403121561014b57600080fd5b600061015984828501610124565b91505092915050565b61016b816101e2565b82525050565b60006020820190506101866000830184610162565b92915050565b6000610197826101e2565b91506101a2836101e2565b9250827fffffffffffffffffffffffffffffffffffffffffffffffffffffffffffffffff038211156101d7576101d66101ec565b5b828201905092915050565b6000819050919050565b7f4e487b7100000000000000000000000000000000000000000000000000000000600052601160045260246000fd5b610224816101e2565b811461022f57600080fd5b5056fea2646970667358221220e788a600a16194620201d820ae28b780bf534f08099bab89fa338f89c78dded164736f6c63430008040033",
  "devdoc": {
    "kind": "dev",
    "methods": {},
    "version": 1
  },
  "userdoc": {
    "kind": "user",
    "methods": {},
    "version": 1
  },
  "storageLayout": {
    "storage": [
      {
        "astId": 982,
        "contract": "contracts/BoxV2.sol:BoxV2",
        "label": "value",
        "offset": 0,
        "slot": "0",
        "type": "t_uint256"
      }
    ],
    "types": {
      "t_uint256": {
        "encoding": "inplace",
        "label": "uint256",
        "numberOfBytes": "32"
      }
    }
  }
}